:020000040800F2
:1000000000500020D10600086D06000875060008A3
:100010007D060008850600088D0600080000000027
:10002000000000000000000000000000950600082D
:10003000A106000800000000AD060008B90600088F
:100040001907000819070008190700081907000810
:100050001907000819070008190700081907000800
:1000600019070008190700081907000819070008F0
:1000700019070008190700081907000819070008E0
:1000800019070008190700081907000819070008D0
:1000900019070008190700081907000819070008C0
:1000A00019070008190700081907000819070008B0
:1000B00019070008190700081907000819070008A0
:1000C0001907000819070008190700081907000890
:1000D0001907000819070008190700081907000880
:1000E0001907000819070008190700080000000098
:1000F0000000000000000000000000000000000000
:0C01000000000000000000005FF808F1A3
:10010C0010B5054C237833B9044B13B10448AFF345
:10011C0000800123237010BD0C00002000000000A3
:10012C00C41A000808B5034B1BB103490348AFF3CD
:10013C00008008BD0000000010000020C41A000858
:10014C0080B483B000AF78607B68B3F1804F06D188
:10015C00174BDB69164A43F00103D36109E07B6856
:10016C00144A934205D1124BDB69114A43F0080340
:10017C00D3617B684FF47A72DA627B680E4A9A62BA
:10018C007B681B6823F010027B681A607B685B69D4
:10019C0043F001027B685A617B681B6843F00102E3
:1001AC007B681A6000BF0C37BD4680BC704700BF2F
:1001BC0000100240000800403F19010080B48FB0CD
:1001CC0000AF534B9B69524A43F008039361504B69
:1001DC009B6903F008037B607B684D4BDB694C4AE1
:1001EC0043F00403D3614A4BDB6903F004033B6027
:1001FC003B68484B7B63484B3B637B6B1B6823F032
:10020C0070627B6B1A607B6B1B6843F030627B6B9C
:10021C001A607B6B1B6823F070427B6B1A607B6BE4
:10022C001B6843F030427B6B1A603B6B1B6823F0FE
:10023C000F023B6B1A603B6B1B6843F00B023B6B72
:10024C001A603B6B1B6823F0F0023B6B1A603B6B34
:10025C001B6843F0B0023B6B1A60304BFB62304BB7
:10026C00BB62304B7B62304B3B62304BFB61304BA3
:10027C00BB61304B7B61304B3B61304BFB60304B97
:10028C00BB60BB6A42F210721A60FB6A2D4A1A609C
:10029C007B6A40F6C4121A603B6A41F288321A60DB
:1002AC00FB6941F64C521A60BB6942F210721A603B
:1002BC007B691B6823F4E64323F073037A691360AC
:1002CC007B691B6843F4C04343F060037A69136095
:1002DC003B691B6823F4E64323F073033A6913600C
:1002EC003B691B6843F4C04343F060033A691360F5
:1002FC00FB6841F211121A60BB681B6843F00102E3
:10030C00BB681A6000BF3C37BD4680BC704700BF5D
:10031C000010024000080140040801402808004079
:10032C002C08004034080040380800403C080040CD
:10033C0040080040180800401C08004020080040FD
:10034C00000800403F19010080B500AF00F0E0F953
:10035C0000F00EF800F0CCF800F050F80348FFF76E
:10036C00EFFEFFF72BFF00BFFDE700BF00080040CA
:10037C0080B590B000AF07F1180328220021184671
:10038C0001F06EFB3B1D00221A605A609A60DA6025
:10039C001A610123BB614FF48033FB6100233B6284
:1003AC000123BB6202237B634FF48033BB634FF4A6
:1003BC00E013FB6307F11803184600F073FC0346C7
:1003CC00002B01D000F0C2F80F237B600223BB602E
:1003DC000023FB604FF480633B6100237B613B1D7A
:1003EC000221184600F0E0FE0346002B01D000F07D
:1003FC00ADF800BF4037BD4680BD000080B58AB067
:10040C0000AF07F1200300221A605A603B1D002246
:10041C001A605A609A60DA601A615A619A61324BBA
:10042C00324A1A60304B00225A602F4B00229A60DD
:10043C002D4B4FF6FF72DA602B4B00221A612A4BC0
:10044C0000229A61284801F00BF80346002B01D0DA
:10045C0000F07CF800233B6200237B6207F1200351
:10046C001946214801F09EFA0346002B01D000F0FA
:10047C006DF800237B600023BB600023FB6000232E
:10048C007B613B1D00221946174801F039F80346E1
:10049C00002B01D000F05AF83B1D042219461248DB
:1004AC0001F02EF80346002B01D000F04FF83B1D55
:1004BC00082219460C4801F023F80346002B01D002
:1004CC0000F044F83B1D0C221946074801F018F8BF
:1004DC000346002B01D000F039F8034800F08CF8EB
:1004EC0000BF2837BD4680BD280000200008004012
:1004FC0080B485B000AF144B9B69134A43F02003C2
:10050C009361114B9B6903F02003FB60FB680E4B5E
:10051C009B690D4A43F0040393610B4B9B6903F0F9
:10052C000403BB60BB68084B9B69074A43F0080394
:10053C009361054B9B6903F008037B607B6800BFEC
:10054C001437BD4680BC70470010024080B400AF29
:10055C0072B600BF00BFFDE780B485B000AF154B8D
:10056C009B69144A43F001039361124B9B6903F09E
:10057C000103BB60BB680F4BDB690E4A43F0805331
:10058C00D3610C4BDB6903F080537B607B680A4BB7
:10059C005B68FB60FB6823F0E063FB60FB6843F087
:1005AC000073FB60044AFB68536000BF1437BD4600
:1005BC0080BC7047001002400000014080B485B040
:1005CC0000AF78607B681B68094A93420BD1094BDA
:1005DC00DB69084A43F00403D361064BDB6903F083
:1005EC000403FB60FB6800BF1437BD4680BC70473A
:1005FC00000800400010024080B588B000AF786061
:10060C0007F1100300221A605A609A60DA607B6866
:10061C001B68104A934218D10F4B9B690E4A43F04A
:10062C00080393610C4B9B6903F00803FB60FB68A8
:10063C004FF470733B6102237B610223FB6107F172
:10064C0010031946054800F0A9F900BF2037BD4634
:10065C0080BD00BF0008004000100240000C0140AB
:10066C0080B400AF00BFFDE780B400AF00BFFDE772
:10067C0080B400AF00BFFDE780B400AF00BFFDE762
:10068C0080B400AF00BFFDE780B400AF00BFBD4633
:10069C0080BC704780B400AF00BFBD4680BC7047C3
:1006AC0080B400AF00BFBD4680BC704780B500AFC2
:1006BC0000F074F800BF80BD80B400AF00BFBD4631
:1006CC0080BC7047FFF7F8FF0B480C490C4A00231D
:1006DC0002E0D458C4500433C4188C42F9D3094AEC
:1006EC00094C002301E013600432A242FBD301F059
:1006FC00BFF9FFF729FE7047000000200C00002016
:10070C00081B00080C00002074000020FEE700000D
:10071C0080B500AF084B1B68074A43F01003136009
:10072C00032000F007F90F2000F008F8FFF714FF82
:10073C000023184680BD00BF0020024080B582B067
:10074C0000AF7860124B1A68124B1B7819464FF4A5
:10075C007A73B3FBF1F3B2FBF3F3184600F011F923
:10076C000346002B01D001230EE07B680F2B0AD827
:10077C00002279684FF0FF3000F0E7F8064A7B68FA
:10078C001360002300E0012318460837BD4680BDE6
:10079C0000000020080000200400002080B400AFFE
:1007AC00054B1B781A46054B1B681344034A136010
:1007BC0000BFBD4680BC70470800002070000020C0
:1007CC0080B400AF024B1B681846BD4680BC704716
:1007DC007000002080B485B000AF78607B6803F0B7
:1007EC000703FB600C4BDB68BB60BA684FF6FF037A
:1007FC001340BB60FB681A02BB68134343F0BF6332
:10080C0043F40033BB60044ABB68D36000BF1437A9
:10081C00BD4680BC704700BF00ED00E080B400AF67
:10082C00044BDB681B0A03F007031846BD4680BC6B
:10083C00704700BF00ED00E080B483B000AF03460A
:10084C003960FB7197F90730002B0ADB3B68DAB291
:10085C000C4997F907301201D2B20B4483F80023EC
:10086C000AE03B68DAB20849FB7903F00F03043B5A
:10087C001201D2B20B441A7600BF0C37BD4680BCB5
:10088C00704700BF00E100E000ED00E080B489B0EB
:10089C0000AFF860B9607A60FB6803F00703FB6196
:1008AC00FB69C3F10703042B28BF0423BB61FB695D
:1008BC000433062B02D9FB69033B00E000237B6168
:1008CC004FF0FF32BB6902FA03F3DA43BB681A40FC
:1008DC007B699A404FF0FF317B6901FA03F3D943EE
:1008EC007B680B40134318462437BD4680BC7047C9
:1008FC0080B582B000AF78607B68013BB3F1807F3C
:10090C0001D301230FE00A4A7B68013B53600F219E
:10091C004FF0FF30FFF790FF054B00229A60044B1D
:10092C0007221A60002318460837BD4680BD00BF59
:10093C0010E000E080B582B000AF78607868FFF717
:10094C0049FF00BF0837BD4680BD80B586B000AFFB
:10095C000346B9607A60FB7300237B61FFF75EFF8F
:10096C0078617A68B9687869FFF790FF024697F961
:10097C000F3011461846FFF75FFF00BF1837BD4612
:10098C0080BD80B582B000AF78607868FFF7B0FFAB
:10099C00034618460837BD4680BD000080B48BB0B6
:1009AC0000AF7860396000237B6200233B6269E111
:1009BC0001227B6A02FA03F3FB613B681B68FA694C
:1009CC001340BB61BA69FB699A4240F058813B689D
:1009DC005B689A4A93425ED0984A934275D8984A7B
:1009EC00934258D0964A93426FD8964A934252D02B
:1009FC00944A934269D8944A93424CD0924A934277
:100A0C0063D8924A934246D0904A93425DD8122BB7
:100A1C002AD8122B59D801A252F823F0A30A0008A5
:100A2C007D0A00088F0A0008D10A0008D70A0008BE
:100A3C00D70A0008D70A0008D70A0008D70A000806
:100A4C00D70A0008D70A0008D70A0008D70A0008F6
:100A5C00D70A0008D70A0008D70A0008D70A0008E6
:100A6C00850A0008990A0008794A934213D02CE0B1
:100A7C003B68DB683B6229E03B68DB6804333B6224
:100A8C0024E03B68DB6808333B621FE03B68DB68B3
:100A9C000C333B621AE03B689B68002B02D10423A9
:100AAC003B6213E03B689B68012B05D108233B623A
:100ABC007B68FA691A6109E008233B627B68FA6972
:100ACC005A6103E000233B6200E000BFBB69FF2BCF
:100ADC0001D87B6801E07B6804337B61BB69FF2B29
:100AEC0002D87B6A9B0002E07B6A083B9B003B615F
:100AFC007B691A680F213B6901FA03F3DB431A4047
:100B0C00396A3B6901FA03F31A437B691A603B6843
:100B1C005B6803F08053002B00F0B1804D4B9B6958
:100B2C004C4A43F0010393614A4B9B6903F0010368
:100B3C00BB60BB68484A7B6A9B08023352F823307F
:100B4C00FB607B6A03F003039B000F2202FA03F3A2
:100B5C00DB43FA681340FB607B68404A934213D036
:100B6C007B683F4A93420DD07B683E4A934207D044
:100B7C007B683D4A934201D1032306E0042304E041
:100B8C00022302E0012300E000237A6A02F0030250
:100B9C0092009340FA681343FB602F497B6A9B08D1
:100BAC000233FA6841F823203B685B6803F4801336
:100BBC00002B06D02D4B9A682C49BB6913438B60D4
:100BCC0006E02A4B9A68BB69DB43284913408B60CB
:100BDC003B685B6803F40013002B06D0234BDA68E8
:100BEC002249BB691343CB6006E0204BDA68BB6932
:100BFC00DB431E491340CB603B685B6803F4003356
:100C0C00002B06D0194B5A681849BB6913434B602B
:100C1C0006E0164B5A68BB69DB43144913404B6022
:100C2C003B685B6803F48033002B21D00F4B1A68B0
:100C3C000E49BB6913430B6021E000BF000032106A
:100C4C0000003110000022100000211000001210D2
:100C5C00000011100010024000000140000801408B
:100C6C00000C014000100140001401400004014040
:100C7C000B4B1A68BB69DB43094913400B607B6A59
:100C8C0001337B623B681A687B6A22FA03F3002B00
:100C9C007FF48EAE00BF00BF2C37BD4680BC7047C2
:100CAC000004014080B586B000AF78607B68002BF3
:100CBC0001D1012372E27B681B6803F00103002B56
:100CCC0000F08780924B5B6803F00C03042B0CD074
:100CDC008F4B5B6803F00C03082B12D18C4B5B68B9
:100CEC0003F48033B3F5803F0BD1894B1B6803F4BD
:100CFC000033002B6CD07B685B68002B68D1012320
:100D0C004CE27B685B68B3F5803F06D1804B1B6877
:100D1C007F4A43F4803313602EE07B685B68002BC2
:100D2C000CD17B4B1B687A4A23F480331360784BCD
:100D3C001B68774A23F4802313601DE07B685B6893
:100D4C00B3F5A02F0CD1724B1B68714A43F480236E
:100D5C0013606F4B1B686E4A43F4803313600BE0D7
:100D6C006B4B1B686A4A23F480331360684B1B6817
:100D7C00674A23F4802313607B685B68002B13D0D5
:100D8C00FFF71EFD386108E0FFF71AFD02463B69CC
:100D9C00D31A642B01D9032300E25D4B1B6803F4C7
:100DAC000033002BF0D014E0FFF70AFD386108E0A7
:100DBC00FFF706FD02463B69D31A642B01D90323C6
:100DCC00ECE1534B1B6803F40033002BF0D100E033
:100DDC0000BF7B681B6803F00203002B63D04C4BF5
:100DEC005B6803F00C03002B0BD0494B5B6803F0E2
:100DFC000C03082B1CD1464B5B6803F48033002B8F
:100E0C0016D1434B1B6803F00203002B05D07B6803
:100E1C001B69012B01D00123C0E13D4B1B6823F062
:100E2C00F8027B685B69DB00394913430B603AE0DD
:100E3C007B681B69002B20D0364B01221A60FFF710
:100E4C00BFFC386108E0FFF7BBFC02463B69D31AD4
:100E5C00022B01D90323A1E12D4B1B6803F00203E4
:100E6C00002BF0D02A4B1B6823F0F8027B685B69DF
:100E7C00DB00274913430B6015E0264B00221A6058
:100E8C00FFF79EFC386108E0FFF79AFC02463B69CD
:100E9C00D31A022B01D9032380E11D4B1B6803F0ED
:100EAC000203002BF0D17B681B6803F00803002BB6
:100EBC003AD07B689B69002B19D0174B01221A6022
:100ECC00FFF77EFC386108E0FFF77AFC02463B69CD
:100EDC00D31A022B01D9032360E10D4B5B6A03F09B
:100EEC000203002BF0D0012000F09CFA1CE00A4B0E
:100EFC0000221A60FFF764FC38610FE0FFF760FC1A
:100F0C0002463B69D31A022B08D9032346E100BFE2
:100F1C00001002400000424280044242924B5B6A45
:100F2C0003F00203002BE9D17B681B6803F0040378
:100F3C00002B00F0A6800023FB758B4BDB6903F0C4
:100F4C008053002B0DD1884BDB69874A43F08053CB
:100F5C00D361854BDB6903F08053BB60BB68012315
:100F6C00FB75824B1B6803F48073002B18D17F4BED
:100F7C001B687E4A43F480731360FFF721FC3861D1
:100F8C0008E0FFF71DFC02463B69D31A642B01D91C
:100F9C00032303E1754B1B6803F48073002BF0D023
:100FAC007B68DB68012B06D16F4B1B6A6E4A43F0E2
:100FBC00010313622DE07B68DB68002B0CD16A4BBC
:100FCC001B6A694A23F001031362674B1B6A664A6A
:100FDC0023F0040313621CE07B68DB68052B0CD147
:100FEC00614B1B6A604A43F0040313625E4B1B6A3D
:100FFC005D4A43F0010313620BE05B4B1B6A5A4AD8
:10100C0023F001031362584B1B6A574A23F0040365
:10101C0013627B68DB68002B15D0FFF7D1FB3861BE
:10102C000AE0FFF7CDFB02463B69D31A41F2883246
:10103C00934201D90323B1E04B4B1B6A03F002032B
:10104C00002BEED014E0FFF7BBFB38610AE0FFF792
:10105C00B7FB02463B69D31A41F28832934201D95D
:10106C0003239BE0404B1B6A03F00203002BEED1E1
:10107C00FB7D012B05D13C4BDB693B4A23F08053B4
:10108C00D3617B68DB69002B00F08780364B5B6893
:10109C0003F00C03082B61D07B68DB69022B46D173
:1010AC00334B00221A60FFF78BFB386108E0FFF727
:1010BC0087FB02463B69D31A022B01D903236DE04F
:1010CC00294B1B6803F00073002BF0D17B681B6A63
:1010DC00B3F5803F08D1244B5B6823F400327B6866
:1010EC009B68214913434B601F4B5B6823F47412BC
:1010FC007B68196A7B685B6A0B431B4913434B6023
:10110C001B4B01221A60FFF75BFB386108E0FFF70D
:10111C0057FB02463B69D31A022B01D903233DE04E
:10112C00114B1B6803F00073002BF0D035E0104B13
:10113C0000221A60FFF744FB386108E0FFF740FB20
:10114C0002463B69D31A022B01D9032326E0064B36
:10115C001B6803F00073002BF0D11EE07B68DB6989
:10116C00012B07D1012319E0001002400070004050
:10117C00600042420B4B5B68FB60FB6803F48032FF
:10118C007B681B6A9A4206D1FB6803F470127B6879
:10119C005B6A9A4201D0012300E0002318461837FD
:1011AC00BD4680BD0010024080B584B000AF7860B1
:1011BC0039607B68002B01D10123D0E06A4B1B689E
:1011CC0003F007033A689A4210D9674B1B6823F067
:1011DC00070265493B6813430B60634B1B6803F0C4
:1011EC0007033A689A4201D00123B8E07B681B6878
:1011FC0003F00203002B20D07B681B6803F0040370
:10120C00002B05D0594B5B68584A43F4E06353609C
:10121C007B681B6803F00803002B05D0534B5B68FD
:10122C00524A43F460535360504B5B6823F0F00216
:10123C007B689B684D4913434B607B681B6803F0CC
:10124C000103002B40D07B685B68012B07D1474B17
:10125C001B6803F40033002B15D101237FE07B685E
:10126C005B68022B07D1414B1B6803F00073002B0A
:10127C0009D1012373E03D4B1B6803F00203002BE3
:10128C0001D101236BE0394B5B6823F003027B68CF
:10129C005B68364913434B60FFF792FAF8600AE03B
:1012AC00FFF78EFA0246FB68D31A41F2883293425A
:1012BC0001D9032353E02D4B5B6803F00C027B68D0
:1012CC005B689B009A42EBD1274B1B6803F007032A
:1012DC003A689A4210D2244B1B6823F00702224929
:1012EC003B6813430B60204B1B6803F007033A6801
:1012FC009A4201D0012332E07B681B6803F004039F
:10130C00002B08D0194B5B6823F4E0627B68DB6828
:10131C00164913434B607B681B6803F00803002BD2
:10132C0009D0124B5B6823F460527B681B69DB00AD
:10133C000E4913434B6000F021F802460B4B5B68DF
:10134C001B0903F00F030A49CB5C22FA03F3094A89
:10135C001360094B1B681846FFF7F0F90023184679
:10136C001037BD4680BD00BF002002400010024077
:10137C00DC1A0008000000200400002080B487B0B4
:10138C0000AF0023FB600023BB6000237B610023C4
:10139C007B6000233B611E4B5B68FB60FB6803F0CA
:1013AC000C03042B02D0082B03D027E0194B3B6114
:1013BC0027E0FB689B0C03F00F03174AD35C7B60A0
:1013CC00FB6803F48033002B10D0114B5B685B0C73
:1013DC0003F00103114AD35CBB607B680D4A03FB2D
:1013EC0002F2BB68B2FBF3F37B6104E07B680C4A4E
:1013FC0002FB03F37B617B693B6102E0054B3B61C4
:10140C0000BF3B6918461C37BD4680BC704700BF07
:10141C000010024000127A00EC1A0008FC1A0008B6
:10142C0000093D0080B485B000AF78600A4B1B68A2
:10143C000A4AA2FB03235B0A7A6802FB03F3FB60F4
:10144C0000BFFB685A1EFA60002BF9D100BF00BF29
:10145C001437BD4680BC704700000020D34D62108D
:10146C0080B582B000AF78607B68002B01D101237E
:10147C0041E07B6893F83D30DBB2002B06D17B68F2
:10148C00002283F83C207868FFF798F87B680222EA
:10149C0083F83D207B681A687B6804331946104634
:1014AC0000F08AF87B68012283F846207B680122D1
:1014BC0083F83E207B68012283F83F207B68012261
:1014CC0083F840207B68012283F841207B6801224D
:1014DC0083F842207B68012283F843207B68012239
:1014EC0083F844207B68012283F845207B68012225
:1014FC0083F83D20002318460837BD4680BD000008
:10150C0080B586B000AFF860B9607A600023FB75D7
:10151C00FB6893F83C30012B01D1022348E0FB68B7
:10152C00012283F83C207B680C2B39D801A252F89D
:10153C0023F000BF75150008AD150008AD150008A7
:10154C00AD15000883150008AD150008AD15000891
:10155C00AD15000891150008AD150008AD15000873
:10156C00AD1500089F150008FB681B68B968184684
:10157C0000F090F817E0FB681B68B968184600F09B
:10158C00EFF810E0FB681B68B968184600F052F9D8
:10159C0009E0FB681B68B968184600F0B5F902E071
:1015AC000123FB7500BFFB68002283F83C20FB7D08
:1015BC0018461837BD4680BD80B485B000AF786042
:1015CC0039607B681B68FB607B682F4A93420BD0A9
:1015DC007B68B3F1804F07D07B682C4A934203D0D1
:1015EC007B682B4A934208D1FB6823F07003FB60A5
:1015FC003B685B68FA681343FB607B68224A934242
:10160C000BD07B68B3F1804F07D07B681F4A9342A5
:10161C0003D07B681E4A934208D1FB6823F44073C5
:10162C00FB603B68DB68FA681343FB60FB6823F0E4
:10163C0080023B685B691343FB607B68FA681A6045
:10164C003B689A687B68DA623B681A687B689A62C6
:10165C007B680D4A934203D13B681A697B681A6315
:10166C007B6801225A617B681B6903F00103002B24
:10167C0005D07B681B6923F001027B681A6100BFEF
:10168C001437BD4680BC7047002C0140000400405C
:10169C000008004080B487B000AF786039607B6888
:1016AC001B6A7B617B681B6A23F001027B681A62F0
:1016BC007B685B683B617B689B69FB60FB6823F024
:1016CC007003FB60FB6823F00303FB603B681B6843
:1016DC00FA681343FB607B6923F002037B613B6870
:1016EC009B687A6913437B617B681C4A93420CD1DB
:1016FC007B6923F008037B613B68DB687A691343E1
:10170C007B617B6923F004037B617B68134A934202
:10171C0011D13B6923F480733B613B6923F4007363
:10172C003B613B685B693A6913433B613B689B696E
:10173C003A6913433B617B683A695A607B68FA6883
:10174C009A613B685A687B685A637B687A691A624B
:10175C0000BF1C37BD4680BC704700BF002C014049
:10176C0080B487B000AF786039607B681B6A7B619E
:10177C007B681B6A23F010027B681A627B685B68CB
:10178C003B617B689B69FB60FB6823F4E043FB6077
:10179C00FB6823F44073FB603B681B681B02FA6810
:1017AC001343FB607B6923F020037B613B689B68E0
:1017BC001B017A6913437B617B681D4A93420DD1EF
:1017CC007B6923F080037B613B68DB681B017A69D2
:1017DC0013437B617B6923F040037B617B68144A74
:1017EC00934213D13B6923F480633B613B6923F43F
:1017FC0000633B613B685B699B003A6913433B6147
:10180C003B689B699B003A6913433B617B683A696F
:10181C005A607B68FA689A613B685A687B689A637D
:10182C007B687A691A6200BF1C37BD4680BC704762
:10183C00002C014080B487B000AF786039607B68C1
:10184C001B6A7B617B681B6A23F480727B681A625B
:10185C007B685B683B617B68DB69FB60FB6823F042
:10186C007003FB60FB6823F00303FB603B681B68A1
:10187C00FA681343FB607B6923F400737B613B685C
:10188C009B681B027A6913437B617B681D4A9342F8
:10189C000DD17B6923F400637B613B68DB681B0221
:1018AC007A6913437B617B6923F480637B617B687A
:1018BC00144A934213D13B6923F480533B613B6937
:1018CC0023F400533B613B685B691B013A6913438A
:1018DC003B613B689B691B013A6913433B617B6825
:1018EC003A695A607B68FA68DA613B685A687B68C7
:1018FC00DA637B687A691A6200BF1C37BD4680BC0C
:10190C00704700BF002C014080B487B000AF7860F6
:10191C0039607B681B6A3B617B681B6A23F48052CD
:10192C007B681A627B685B687B617B68DB69FB6048
:10193C00FB6823F4E043FB60FB6823F44073FB601B
:10194C003B681B681B02FA681343FB603B6923F47A
:10195C0000533B613B689B681B033A6913433B6133
:10196C007B680F4A934209D17B6923F480437B61E6
:10197C003B685B699B017A6913437B617B687A697D
:10198C005A607B68FA68DA613B685A687B681A644B
:10199C007B683A691A6200BF1C37BD4680BC704731
:1019AC00002C014080B485B000AF786039607B6852
:1019BC0093F83C30012B01D1022346E07B680122D5
:1019CC0083F83C207B68022283F83D207B681B68EF
:1019DC005B68FB607B681B689B68BB60FB6823F0E3
:1019EC007003FB603B681B68FA681343FB607B6801
:1019FC001B68FA685A607B681B68164A93420ED0C3
:101A0C007B681B68B3F1804F09D07B681B68124A56
:101A1C00934204D07B681B68104A93420CD1BB687C
:101A2C0023F08003BB603B685B68BA681343BB6000
:101A3C007B681B68BA689A607B68012283F83D203A
:101A4C007B68002283F83C20002318461437BD46DF
:101A5C0080BC7047002C014000040040000800408E
:101A6C0003460244934200D1704703F8011BF9E787
:101A7C0070B500260C4D0D4C641BA410A64209D168
:101A8C0000F01AF800260A4D0A4C641BA410A6425A
:101A9C0005D170BD55F8043B98470136EEE755F873
:101AAC00043B98470136F2E7001B0008001B0008B6
:101ABC00001B0008041B0008F8B500BFF8BC08BCEC
:101ACC009E467047F8B500BFF8BC08BC9E467047F0
:101ADC0000000000000000000102030406070809D2
:101AEC0002030405060708090A0B0C0D0E0F101053
:041AFC0001020000E3
:041B000031010008A7
:041B04000D010008C7
:0C1B080000127A00100000000100000034
:04000005080006D118
:00000001FF
