:020000040800F2
:100000000050002061070008FD06000805070008F1
:100010000D070008150700081D0700080000000074
:10002000000000000000000000000000250700089C
:1000300031070008000000003D07000849070008DC
:10004000A9070008A9070008A9070008A9070008D0
:10005000A9070008A9070008A9070008A9070008C0
:10006000A9070008A9070008A9070008A9070008B0
:10007000A9070008A9070008A9070008A9070008A0
:10008000A9070008A9070008A9070008A907000890
:10009000A9070008A9070008A9070008A907000880
:1000A000A9070008A9070008A9070008A907000870
:1000B000A9070008A9070008A9070008A907000860
:1000C000A9070008A9070008A9070008A907000850
:1000D000A9070008A9070008A9070008A907000840
:1000E000A9070008A9070008A907000800000000E8
:1000F0000000000000000000000000000000000000
:0C01000000000000000000005FF808F1A3
:10010C0010B5054C237833B9044B13B10448AFF345
:10011C0000800123237010BD0C00002000000000A3
:10012C009412000808B5034B1BB103490348AFF305
:10013C00008008BD00000000100000209412000890
:10014C0080B483B000AF7860084611461A46034667
:10015C00FB700B46BB7013467B707B683F4A934227
:10016C0006D13F4B9B693E4A43F0040393611FE069
:10017C007B683C4A934206D1394B9B69384A43F021
:10018C000803936114E07B68374A934206D1344BE1
:10019C009B69334A43F01003936109E07B68334A4F
:1001AC00934205D12E4B9B692D4A43F0200393615A
:1001BC00FB78072B18D87B681B68FA7892000F2104
:1001CC0001FA02F2D2431A407B681A607B681B6802
:1001DC00B9787A7892001143FA78920001FA02F217
:1001EC001A437B681A6019E07B685B68FA78083AF6
:1001FC0092000F2101FA02F2D2431A407B685A6036
:10020C007B685B68B9787A7892001143FA78083A7F
:10021C00920001FA02F21A437B685A603B7C012B74
:10022C0009D17B68DB68FA78012101FA02F21A43E2
:10023C007B68DA600CE03B7C022B09D17B68DB68C5
:10024C00FA78012101FA02F2D2431A407B68DA6093
:10025C0000BF0C37BD4680BC704700BF0008014092
:10026C0000100240000C014000100140001401403D
:10027C0080B483B000AF0346FB71794BDB69784ADD
:10028C0043F00103D3614FF080431B684FF0804271
:10029C0023F0010313604FF080433F229A624FF02A
:1002AC00804340F2E732DA624FF080431B684FF034
:1002BC00804223F0600313604FF080431B684FF0C3
:1002CC00804243F0400313604FF080431B684FF0B3
:1002DC00804243F080031360FB79012B28D14FF04F
:1002EC0080439B694FF0804223F0FF0393614FF0F2
:1002FC0080439B694FF0804243F0600393614FF061
:10030C0080439B694FF0804243F0080393614FF0A8
:10031C0080431B6A4FF0804223F0030313624FF0BB
:10032C0080431B6A4FF0804243F00103136282E06A
:10033C00FB79022B28D14FF080439B694FF0804210
:10034C0023F47F4393614FF080439B694FF08042CD
:10035C0043F4C04393614FF080439B694FF080425C
:10036C0043F4006393614FF080431B6A4FF080426B
:10037C0023F0300313624FF080431B6A4FF080422E
:10038C0043F01003136256E0FB79032B28D14FF096
:10039C008043DB694FF0804223F0FF03D3614FF0C1
:1003AC008043DB694FF0804243F06003D3614FF030
:1003BC008043DB694FF0804243F00803D3614FF078
:1003CC0080431B6A4FF0804223F4407313624FF05A
:1003DC0080431B6A4FF0804243F4807313622AE01F
:1003EC00FB79042B27D14FF08043DB694FF080421F
:1003FC0023F47F43D3614FF08043DB694FF080429D
:10040C0043F4C043D3614FF08043DB694FF080422B
:10041C0043F40063D3614FF080431B6A4FF080427A
:10042C0023F4405313624FF080431B6A4FF0804219
:10043C0043F4805313624FF080435B694FF080426A
:10044C0043F0010353614FF080431B684FF080422F
:10045C0043F00103136000BF0C37BD4680BC7047EE
:10046C000010024080B483B000AF03460A46FB7113
:10047C001346BB80FB79012B04D14FF08042BB8823
:10048C00536316E0FB79022B04D14FF08042BB88FA
:10049C0093630EE0FB79032B04D14FF08042BB88B1
:1004AC00D36306E0FB79042B03D14FF08042BB8869
:1004BC00136400BF0C37BD4680BC704780B586B056
:1004CC0002AF00F06DF900F07DF800F0B7F80023F2
:1004DC0000930223022200213848FFF731FE00234B
:1004EC0000930223022201213448FFF729FE002346
:1004FC000093022302220A213148FFF721FE002338
:10050C000093022302220B212D48FFF719FE012034
:10051C00FFF7AEFE0220FFF7ABFE4FF47A73FB81C0
:10052C000023BB8101237B600023FB72FB7A002B31
:10053C0002D0012B1FD03DE0FB897A689A420FD87C
:10054C007B689BB2FA89D31AFB81FB897A689A4241
:10055C0006D30023FB814FF47A73BB810123FB721A
:10056C00FB8919460120FFF77DFFBB891946022044
:10057C00FFF778FF1EE0BB897A689A420FD87B6838
:10058C009BB2BA89D31ABB81BB897A689A4206D9C5
:10059C000023BB814FF47A73FB810023FB72FB8930
:1005AC0019460120FFF75EFFBB8919460220FFF7B1
:1005BC0059FF00BF0A2000F055F9B7E700080140C9
:1005CC00000C014080B590B000AF07F11803282251
:1005DC000021184600F02CFE3B1D00221A605A60C8
:1005EC009A60DA601A610223BB610123BB6210239B
:1005FC00FB6200237B6307F11803184600F03AFAFC
:10060C000346002B01D000F03BF80F237B60002346
:10061C00BB600023FB6000233B6100237B613B1D1F
:10062C000021184600F0A8FC0346002B01D000F076
:10063C0027F800BF4037BD4680BD000080B483B0B2
:10064C0000AF0E4B9B690D4A43F0200393610B4B9B
:10065C009B6903F020037B607B68084B9B69074A0E
:10066C0043F004039361054B9B6903F004033B6067
:10067C003B6800BF0C37BD4680BC70470010024081
:10068C0080B400AF72B600BF00BFFDE780B485B088
:10069C0000AF154B9B69144A43F001039361124B55
:1006AC009B6903F00103BB60BB680F4BDB690E4A0F
:1006BC0043F08053D3610C4BDB6903F080537B60B8
:1006CC007B680A4B5B68FB60FB6823F0E063FB60B4
:1006DC00FB6843F00073FB60044AFB68536000BF87
:1006EC001437BD4680BC704700100240000001402A
:1006FC0080B400AF00BFFDE780B400AF00BFFDE7E2
:10070C0080B400AF00BFFDE780B400AF00BFFDE7D1
:10071C0080B400AF00BFFDE780B400AF00BFBD46A2
:10072C0080BC704780B400AF00BFBD4680BC704732
:10073C0080B400AF00BFBD4680BC704780B500AF31
:10074C0000F074F800BF80BD80B400AF00BFBD46A0
:10075C0080BC7047FFF7F8FF0B480C490C4A00238C
:10076C0002E0D458C4500433C4188C42F9D3094A5B
:10077C00094C002301E013600432A242FBD300F0C9
:10078C005FFDFFF79BFE7047000000200C0000206F
:10079C00D81200080C0000202C000020FEE70000FE
:1007AC0080B500AF084B1B68074A43F01003136079
:1007BC00032000F02BF90F2000F008F8FFF766FF7C
:1007CC000023184680BD00BF0020024080B582B0D7
:1007DC0000AF7860124B1A68124B1B7819464FF415
:1007EC007A73B3FBF1F3B2FBF3F3184600F035F96F
:1007FC000346002B01D001230EE07B680F2B0AD897
:10080C00002279684FF0FF3000F00BF9064A7B6844
:10081C001360002300E0012318460837BD4680BD55
:10082C0000000020080000200400002080B400AF6D
:10083C00054B1B781A46054B1B681344034A13607F
:10084C0000BFBD4680BC7047080000202800002077
:10085C0080B400AF024B1B681846BD4680BC704785
:10086C002800002080B584B000AF7860FFF7F0FF5F
:10087C00B8607B68FB60FB68B3F1FF3F05D00A4BA7
:10088C001B781A46FB681344FB6000BFFFF7E0FFC0
:10089C000246BB68D31AFA689A42F7D800BF00BF69
:1008AC001037BD4680BD00BF0800002080B485B065
:1008BC0000AF78607B6803F00703FB600C4BDB68D0
:1008CC00BB60BA684FF6FF031340BB60FB681A02AB
:1008DC00BB68134343F0BF6343F40033BB60044A6B
:1008EC00BB68D36000BF1437BD4680BC704700BFE7
:1008FC0000ED00E080B400AF044BDB681B0A03F092
:10090C0007031846BD4680BC704700BF00ED00E0F1
:10091C0080B483B000AF03463960FB7197F90730A0
:10092C00002B0ADB3B68DAB20C4997F9073012014D
:10093C00D2B20B4483F800230AE03B68DAB20849D0
:10094C00FB7903F00F03043B1201D2B20B441A766D
:10095C0000BF0C37BD4680BC704700BF00E100E013
:10096C0000ED00E080B489B000AFF860B9607A6047
:10097C00FB6803F00703FB61FB69C3F10703042B5E
:10098C0028BF0423BB61FB690433062B02D9FB6926
:10099C00033B00E000237B614FF0FF32BB6902FA9E
:1009AC0003F3DA43BB681A407B699A404FF0FF317E
:1009BC007B6901FA03F3D9437B680B401343184658
:1009CC002437BD4680BC704780B582B000AF7860DC
:1009DC007B68013BB3F1807F01D301230FE00A4A0E
:1009EC007B68013B53600F214FF0FF30FFF790FF06
:1009FC00054B00229A60044B07221A60002318460C
:100A0C000837BD4680BD00BF10E000E080B582B065
:100A1C0000AF78607868FFF749FF00BF0837BD4624
:100A2C0080BD80B586B000AF0346B9607A60FB73B9
:100A3C0000237B61FFF75EFF78617A68B96878699B
:100A4C00FFF790FF024697F90F3011461846FFF753
:100A5C005FFF00BF1837BD4680BD80B582B000AFC8
:100A6C0078607868FFF7B0FF034618460837BD4634
:100A7C0080BD000080B586B000AF78607B68002B2D
:100A8C0001D1012372E27B681B6803F00103002B88
:100A9C0000F08780924B5B6803F00C03042B0CD0A6
:100AAC008F4B5B6803F00C03082B12D18C4B5B68EB
:100ABC0003F48033B3F5803F0BD1894B1B6803F4EF
:100ACC000033002B6CD07B685B68002B68D1012352
:100ADC004CE27B685B68B3F5803F06D1804B1B68AA
:100AEC007F4A43F4803313602EE07B685B68002BF5
:100AFC000CD17B4B1B687A4A23F480331360784B00
:100B0C001B68774A23F4802313601DE07B685B68C5
:100B1C00B3F5A02F0CD1724B1B68714A43F48023A0
:100B2C0013606F4B1B686E4A43F4803313600BE009
:100B3C006B4B1B686A4A23F480331360684B1B6849
:100B4C00674A23F4802313607B685B68002B13D007
:100B5C00FFF77EFE386108E0FFF77AFE02463B693C
:100B6C00D31A642B01D9032300E25D4B1B6803F4F9
:100B7C000033002BF0D014E0FFF76AFE386108E078
:100B8C00FFF766FE02463B69D31A642B01D9032397
:100B9C00ECE1534B1B6803F40033002BF0D100E065
:100BAC0000BF7B681B6803F00203002B63D04C4B27
:100BBC005B6803F00C03002B0BD0494B5B6803F014
:100BCC000C03082B1CD1464B5B6803F48033002BC1
:100BDC0016D1434B1B6803F00203002B05D07B6836
:100BEC001B69012B01D00123C0E13D4B1B6823F095
:100BFC00F8027B685B69DB00394913430B603AE010
:100C0C007B681B69002B20D0364B01221A60FFF742
:100C1C001FFE386108E0FFF71BFE02463B69D31A42
:100C2C00022B01D90323A1E12D4B1B6803F0020316
:100C3C00002BF0D02A4B1B6823F0F8027B685B6911
:100C4C00DB00274913430B6015E0264B00221A608A
:100C5C00FFF7FEFD386108E0FFF7FAFD02463B693D
:100C6C00D31A022B01D9032380E11D4B1B6803F01F
:100C7C000203002BF0D17B681B6803F00803002BE8
:100C8C003AD07B689B69002B19D0174B01221A6054
:100C9C00FFF7DEFD386108E0FFF7DAFD02463B693D
:100CAC00D31A022B01D9032360E10D4B5B6A03F0CD
:100CBC000203002BF0D0012000F09CFA1CE00A4B40
:100CCC0000221A60FFF7C4FD38610FE0FFF7C0FD8A
:100CDC0002463B69D31A022B08D9032346E100BF15
:100CEC00001002400000424280044242924B5B6A78
:100CFC0003F00203002BE9D17B681B6803F00403AB
:100D0C00002B00F0A6800023FB758B4BDB6903F0F6
:100D1C008053002B0DD1884BDB69874A43F08053FD
:100D2C00D361854BDB6903F08053BB60BB68012347
:100D3C00FB75824B1B6803F48073002B18D17F4B1F
:100D4C001B687E4A43F480731360FFF781FD3861A2
:100D5C0008E0FFF77DFD02463B69D31A642B01D9ED
:100D6C00032303E1754B1B6803F48073002BF0D055
:100D7C007B68DB68012B06D16F4B1B6A6E4A43F014
:100D8C00010313622DE07B68DB68002B0CD16A4BEE
:100D9C001B6A694A23F001031362674B1B6A664A9C
:100DAC0023F0040313621CE07B68DB68052B0CD179
:100DBC00614B1B6A604A43F0040313625E4B1B6A6F
:100DCC005D4A43F0010313620BE05B4B1B6A5A4A0A
:100DDC0023F001031362584B1B6A574A23F0040398
:100DEC0013627B68DB68002B15D0FFF731FD38618F
:100DFC000AE0FFF72DFD02463B69D31A41F2883217
:100E0C00934201D90323B1E04B4B1B6A03F002035D
:100E1C00002BEED014E0FFF71BFD38610AE0FFF762
:100E2C0017FD02463B69D31A41F28832934201D92D
:100E3C0003239BE0404B1B6A03F00203002BEED113
:100E4C00FB7D012B05D13C4BDB693B4A23F08053E6
:100E5C00D3617B68DB69002B00F08780364B5B68C5
:100E6C0003F00C03082B61D07B68DB69022B46D1A5
:100E7C00334B00221A60FFF7EBFC386108E0FFF7F8
:100E8C00E7FC02463B69D31A022B01D903236DE020
:100E9C00294B1B6803F00073002BF0D17B681B6A95
:100EAC00B3F5803F08D1244B5B6823F400327B6898
:100EBC009B68214913434B601F4B5B6823F47412EE
:100ECC007B68196A7B685B6A0B431B4913434B6055
:100EDC001B4B01221A60FFF7BBFC386108E0FFF7DF
:100EEC00B7FC02463B69D31A022B01D903233DE020
:100EFC00114B1B6803F00073002BF0D035E0104B46
:100F0C0000221A60FFF7A4FC386108E0FFF7A0FC90
:100F1C0002463B69D31A022B01D9032326E0064B68
:100F2C001B6803F00073002BF0D11EE07B68DB69BB
:100F3C00012B07D1012319E0001002400070004082
:100F4C00600042420B4B5B68FB60FB6803F4803231
:100F5C007B681B6A9A4206D1FB6803F470127B68AB
:100F6C005B6A9A4201D0012300E00023184618372F
:100F7C00BD4680BD0010024080B584B000AF7860E3
:100F8C0039607B68002B01D10123D0E06A4B1B68D0
:100F9C0003F007033A689A4210D9674B1B6823F099
:100FAC00070265493B6813430B60634B1B6803F0F6
:100FBC0007033A689A4201D00123B8E07B681B68AA
:100FCC0003F00203002B20D07B681B6803F00403A2
:100FDC00002B05D0594B5B68584A43F4E0635360CF
:100FEC007B681B6803F00803002B05D0534B5B6830
:100FFC00524A43F460535360504B5B6823F0F00249
:10100C007B689B684D4913434B607B681B6803F0FE
:10101C000103002B40D07B685B68012B07D1474B49
:10102C001B6803F40033002B15D101237FE07B6890
:10103C005B68022B07D1414B1B6803F00073002B3C
:10104C0009D1012373E03D4B1B6803F00203002B15
:10105C0001D101236BE0394B5B6823F003027B6801
:10106C005B68364913434B60FFF7F2FBF8600AE00C
:10107C00FFF7EEFB0246FB68D31A41F2883293422B
:10108C0001D9032353E02D4B5B6803F00C027B6802
:10109C005B689B009A42EBD1274B1B6803F007035C
:1010AC003A689A4210D2244B1B6823F0070222495B
:1010BC003B6813430B60204B1B6803F007033A6833
:1010CC009A4201D0012332E07B681B6803F00403D1
:1010DC00002B08D0194B5B6823F4E0627B68DB685B
:1010EC00164913434B607B681B6803F00803002B05
:1010FC0009D0124B5B6823F460527B681B69DB00E0
:10110C000E4913434B6000F021F802460B4B5B6811
:10111C001B0903F00F030A49CB5C22FA03F3094ABB
:10112C001360094B1B681846FFF750FB0023184649
:10113C001037BD4680BD00BF0020024000100240A9
:10114C00AC120008000000200400002080B487B01E
:10115C0000AF0023FB600023BB6000237B610023F6
:10116C007B6000233B611E4B5B68FB60FB6803F0FC
:10117C000C03042B02D0082B03D027E0194B3B6146
:10118C0027E0FB689B0C03F00F03174AD35C7B60D2
:10119C00FB6803F48033002B10D0114B5B685B0CA5
:1011AC0003F00103114AD35CBB607B680D4A03FB5F
:1011BC0002F2BB68B2FBF3F37B6104E07B680C4A80
:1011CC0002FB03F37B617B693B6102E0054B3B61F6
:1011DC0000BF3B6918461C37BD4680BC704700BF3A
:1011EC000010024000127A00BC120008CC12000859
:1011FC0000093D0080B485B000AF78600A4B1B68D5
:10120C000A4AA2FB03235B0A7A6802FB03F3FB6026
:10121C0000BFFB685A1EFA60002BF9D100BF00BF5B
:10122C001437BD4680BC704700000020D34D6210BF
:10123C0003460244934200D1704703F8011BF9E7BF
:10124C0070B500260C4D0D4C641BA410A64209D1A0
:10125C0000F01AF800260A4D0A4C641BA410A64292
:10126C0005D170BD55F8043B98470136EEE755F8AB
:10127C00043B98470136F2E7D0120008D012000860
:10128C00D0120008D4120008F8B500BFF8BC08BC96
:10129C009E467047F8B500BFF8BC08BC9E46704728
:1012AC00000000000000000001020304060708090A
:1012BC0002030405060708090A0B0C0D0E0F10108B
:0412CC00010200001B
:0412D00031010008E0
:0412D4000D01000800
:0C12D80000127A0010000000010000006D
:040000050800076187
:00000001FF
