:020000040800F2
:100000000050002089040008250400082D04000881
:10001000350400083D040008450400080000000005
:100020000000000000000000000000004D04000877
:10003000590400080000000065040008710400086D
:10004000D1040008D1040008D1040008D10400083C
:10005000D1040008D1040008D1040008D10400082C
:10006000D1040008D1040008D1040008D10400081C
:10007000D1040008D1040008D1040008D10400080C
:10008000D1040008D1040008D1040008D1040008FC
:10009000D1040008D1040008D1040008D1040008EC
:1000A000D1040008D1040008D1040008D1040008DC
:1000B000D1040008D1040008D1040008D1040008CC
:1000C000D1040008D1040008D1040008D1040008BC
:1000D000D1040008D1040008D1040008D1040008AC
:1000E000D1040008D1040008D10400080000000079
:1000F0000000000000000000000000000000000000
:0C01000000000000000000005FF808F1A3
:10010C0010B5054C237833B9044B13B10448AFF345
:10011C0000800123237010BD0C00002000000000A3
:10012C00280B000808B5034B1BB103490348AFF378
:10013C00008008BD0000000010000020280B000803
:10014C0080B483B000AF78600B467B807B689B6883
:10015C007A88012101FA02F21340002B14BF01230B
:10016C000023DBB218460C37BD4680BC704780B408
:10017C0083B000AF78600B467B8013467B707B7836
:10018C00012B07D17B88012202FA03F31A467B6804
:10019C001A6107E07B881033012202FA03F31A4636
:1001AC007B681A6100BF0C37BD4680BC70470000ED
:1001BC0080B586B000AF00F087F900F09BF800F036
:1001CC009FF80023FB75484A3B1D92E8030083E827
:1001DC00030000214548FFF7B3FF0346002B01D174
:1001EC000123FB7501214148FFF7AAFF0346002BB1
:1001FC0001D10023FB7502213C48FFF7A1FF034608
:10020C00002B01D10223FB75FB7D012B30D1032385
:10021C003B6126E000224FF4F041354800F042FCEF
:10022C003B699BB20B339BB2012219463048FFF756
:10023C009EFFC82000F0AAF901212C48FFF780FF8F
:10024C000346002B01D10023FB7502212748FFF741
:10025C0077FF0346002B01D10223FB753B69013B61
:10026C003B613B69002BB4DBFB7D012BD2D0B0E7AB
:10027C00FB7D022B30D10023FB6026E000224FF4E3
:10028C00F0411B4800F00EFCFB689BB20B339BB299
:10029C00012219461648FFF76AFFC82000F076F9CC
:1002AC0001211248FFF74CFF0346002B01D100231C
:1002BC00FB7500210D48FFF743FF0346002B01D1CE
:1002CC000123FB75FB680133FB60FB68032B80DCAF
:1002DC00FB7D022BD2D07CE700224FF4F041044886
:1002EC0000F0E0FB75E700BF400B00080008014080
:1002FC00000C014080B400AF00BFBD4680BC70470D
:10030C0080B588B000AF07F1100300221A605A6064
:10031C009A60DA60244B9B69234A43F02003936173
:10032C00214B9B6903F02003FB60FB681E4B9B6910
:10033C001D4A43F0040393611B4B9B6903F00403B8
:10034C00BB60BB68184B9B69174A43F00803936169
:10035C00154B9B6903F008037B607B6800224FF40C
:10036C00F041124800F09EFB07233B6100237B61A8
:10037C000123BB6107F1100319460D4800F00EFA7A
:10038C004FF4F0433B6101237B610023BB610223EB
:10039C00FB6107F110031946044800F0FFF900BF98
:1003AC002037BD4680BD00BF00100240000C01404C
:1003BC000008014080B485B000AF154B9B69144A0E
:1003CC0043F001039361124B9B6903F00103BB6083
:1003DC00BB680F4BDB690E4A43F08053D3610C4B67
:1003EC00DB6903F080537B607B680A4B5B68FB60C6
:1003FC00FB6823F0E063FB60FB6843F00073FB6079
:10040C00044AFB68536000BF1437BD4680BC70477C
:10041C00001002400000014080B400AF00BFFDE7B7
:10042C0080B400AF00BFFDE780B400AF00BFFDE7B4
:10043C0080B400AF00BFFDE780B400AF00BFFDE7A4
:10044C0080B400AF00BFBD4680BC704780B400AF25
:10045C0000BFBD4680BC704780B400AF00BFBD4636
:10046C0080BC704780B500AF00F074F800BF80BD51
:10047C0080B400AF00BFBD4680BC7047FFF7F8FFEB
:10048C000B480C490C4A002302E0D458C4500433E6
:10049C00C4188C42F9D3094A094C002301E01360BB
:1004AC000432A242FBD300F015FBFFF781FE70472C
:1004BC00000000200C000020500B00080C00002055
:1004CC002C000020FEE7000080B500AF084B1B6835
:1004DC00074A43F010031360032000F02BF90F20A0
:1004EC0000F008F8FFF766FF0023184680BD00BF38
:1004FC000020024080B582B000AF7860124B1A68C1
:10050C00124B1B7819464FF47A73B3FBF1F3B2FB21
:10051C00F3F3184600F035F90346002B01D0012304
:10052C000EE07B680F2B0AD8002279684FF0FF3061
:10053C0000F00BF9064A7B681360002300E00123EE
:10054C0018460837BD4680BD00000020080000207A
:10055C000400002080B400AF054B1B781A46054BF5
:10056C001B681344034A136000BFBD4680BC704730
:10057C00080000202800002080B400AF024B1B684C
:10058C001846BD4680BC70472800002080B584B05A
:10059C0000AF7860FFF7F0FFB8607B68FB60FB682A
:1005AC00B3F1FF3F05D00A4B1B781A46FB68134486
:1005BC00FB6000BFFFF7E0FF0246BB68D31AFA6886
:1005CC009A42F7D800BF00BF1037BD4680BD00BFB0
:1005DC000800002080B485B000AF78607B6803F021
:1005EC000703FB600C4BDB68BB60BA684FF6FF037C
:1005FC001340BB60FB681A02BB68134343F0BF6334
:10060C0043F40033BB60044ABB68D36000BF1437AB
:10061C00BD4680BC704700BF00ED00E080B400AF69
:10062C00044BDB681B0A03F007031846BD4680BC6D
:10063C00704700BF00ED00E080B483B000AF03460C
:10064C003960FB7197F90730002B0ADB3B68DAB293
:10065C000C4997F907301201D2B20B4483F80023EE
:10066C000AE03B68DAB20849FB7903F00F03043B5C
:10067C001201D2B20B441A7600BF0C37BD4680BCB7
:10068C00704700BF00E100E000ED00E080B489B0ED
:10069C0000AFF860B9607A60FB6803F00703FB6198
:1006AC00FB69C3F10703042B28BF0423BB61FB695F
:1006BC000433062B02D9FB69033B00E000237B616A
:1006CC004FF0FF32BB6902FA03F3DA43BB681A40FE
:1006DC007B699A404FF0FF317B6901FA03F3D943F0
:1006EC007B680B40134318462437BD4680BC7047CB
:1006FC0080B582B000AF78607B68013BB3F1807F3E
:10070C0001D301230FE00A4A7B68013B53600F21A0
:10071C004FF0FF30FFF790FF054B00229A60044B1F
:10072C0007221A60002318460837BD4680BD00BF5B
:10073C0010E000E080B582B000AF78607868FFF719
:10074C0049FF00BF0837BD4680BD80B586B000AFFD
:10075C000346B9607A60FB7300237B61FFF75EFF91
:10076C0078617A68B9687869FFF790FF024697F963
:10077C000F3011461846FFF75FFF00BF1837BD4614
:10078C0080BD80B582B000AF78607868FFF7B0FFAD
:10079C00034618460837BD4680BD000080B48BB0B8
:1007AC0000AF7860396000237B6200233B6269E113
:1007BC0001227B6A02FA03F3FB613B681B68FA694E
:1007CC001340BB61BA69FB699A4240F058813B689F
:1007DC005B689A4A93425ED0984A934275D8984A7D
:1007EC00934258D0964A93426FD8964A934252D02D
:1007FC00944A934269D8944A93424CD0924A934279
:10080C0063D8924A934246D0904A93425DD8122BB9
:10081C002AD8122B59D801A252F823F0A3080008A9
:10082C007D0800088F080008D1080008D7080008C8
:10083C00D7080008D7080008D7080008D708000810
:10084C00D7080008D7080008D7080008D708000800
:10085C00D7080008D7080008D7080008D7080008F0
:10086C008508000899080008794A934213D02CE0B7
:10087C003B68DB683B6229E03B68DB6804333B6226
:10088C0024E03B68DB6808333B621FE03B68DB68B5
:10089C000C333B621AE03B689B68002B02D10423AB
:1008AC003B6213E03B689B68012B05D108233B623C
:1008BC007B68FA691A6109E008233B627B68FA6974
:1008CC005A6103E000233B6200E000BFBB69FF2BD1
:1008DC0001D87B6801E07B6804337B61BB69FF2B2B
:1008EC0002D87B6A9B0002E07B6A083B9B003B6161
:1008FC007B691A680F213B6901FA03F3DB431A4049
:10090C00396A3B6901FA03F31A437B691A603B6845
:10091C005B6803F08053002B00F0B1804D4B9B695A
:10092C004C4A43F0010393614A4B9B6903F001036A
:10093C00BB60BB68484A7B6A9B08023352F8233081
:10094C00FB607B6A03F003039B000F2202FA03F3A4
:10095C00DB43FA681340FB607B68404A934213D038
:10096C007B683F4A93420DD07B683E4A934207D046
:10097C007B683D4A934201D1032306E0042304E043
:10098C00022302E0012300E000237A6A02F0030252
:10099C0092009340FA681343FB602F497B6A9B08D3
:1009AC000233FA6841F823203B685B6803F4801338
:1009BC00002B06D02D4B9A682C49BB6913438B60D6
:1009CC0006E02A4B9A68BB69DB43284913408B60CD
:1009DC003B685B6803F40013002B06D0234BDA68EA
:1009EC002249BB691343CB6006E0204BDA68BB6934
:1009FC00DB431E491340CB603B685B6803F4003358
:100A0C00002B06D0194B5A681849BB6913434B602D
:100A1C0006E0164B5A68BB69DB43144913404B6024
:100A2C003B685B6803F48033002B21D00F4B1A68B2
:100A3C000E49BB6913430B6021E000BF000032106C
:100A4C0000003110000022100000211000001210D4
:100A5C00000011100010024000000140000801408D
:100A6C00000C014000100140001401400004014042
:100A7C000B4B1A68BB69DB43094913400B607B6A5B
:100A8C0001337B623B681A687B6A22FA03F3002B02
:100A9C007FF48EAE00BF00BF2C37BD4680BC7047C4
:100AAC000004014080B483B000AF78600B467B80BB
:100ABC0013467B707B78002B03D07A887B681A6195
:100ACC0003E07B881A047B681A6100BF0C37BD46B3
:100ADC0080BC704770B500260C4D0D4B5B1B9C10F9
:100AEC00A64209D1002600F019F80A4D0A4B5B1BEF
:100AFC009C10A64205D170BD55F8043B98470136B1
:100B0C00EEE755F8043B98470136F2E7480B00082E
:100B1C00480B0008480B00084C0B0008F8B500BF48
:100B2C00F8BC08BC9E467047F8B500BFF8BC08BCC2
:040B3C009E4670471A
:080B4000000800100020004035
:040B4800310100086F
:040B4C000D0100088F
:0C0B500000127A001000000001000000FC
:040000050800048962
:00000001FF
